:100000000C9425010C944D010C944D010C944D0160
:100010000C944D010C944D010C944D010C944D0128
:100020000C944D010C944D010C9408070C94770727
:100030000C944D010C944D010C944D010C944D0108
:100040000C944D010C944D010C944D010C944D01F8
:100050000C944D010C944D010C944D010C94A90984
:100060000C944D010C944D010C944D010C944D01D8
:100070000C944D010C944D010C944D010C944D01C8
:100080000C944D010C944D010C944D010C944D01B8
:100090000C944D010C944D010C944D010C944D01A8
:1000A0000C944D010C944D010C944D01080B000271
:1000B0000202000009040000010202000005240001
:1000C0001001052401010104240206052406000193
:1000D0000705810310004009040100020A00000026
:1000E00007050202400000070583024000000403E8
:1000F000090412010002EF02014041233780000190
:100100000102030141726475696E6F204C4C43001B
:1001100041726475696E6F204D6963726F000A4D9C
:100120006173746572002C20002A002C20617661B6
:10013000696C61626C653D006E3D0052657175656C
:100140007374696E672064617461007472616E73A8
:100150006D697373696F6E20737461747573206554
:1001600072726F723D0053656E64696E67206461E0
:10017000746100206D732C20746F74616C20657243
:10018000726F72733A2000746F74616C2074696DC1
:10019000653A20006669727374206572726F72200E
:1001A00061742069203D2000546573742077697460
:1001B0006820323030207472616E736D69737369B8
:1001C0006F6E73206F662077726974696E67203175
:1001D00030206279746573206561636800000000F7
:1001E000002300260029002C002F0000000000241E
:1001F0000027002A002D0030000000000025002804
:10020000002B002E00310004080201104080401035
:10021000204080408008020401804020100201102C
:10022000801020404020040404040403040502025A
:10023000020204030202020206060606060604047F
:10024000020202040400F309190D11241FBECFEFAE
:10025000DAE0DEBFCDBF11E0A0E0B1E0E8ECFCE108
:1002600002C005900D92AC32B107D9F721E0ACE2A3
:10027000B1E001C01D92A73DB207E1F711E0C4E271
:10028000D1E004C02197FE010E94510EC332D10774
:10029000C9F70E94710A0C94570E0C940000FC01DF
:1002A00080914B01882311F13FB7F89482E080934D
:1002B000E9002091F200822F90E01816190614F43C
:1002C00081E090E0882339F0289A44E640934A017F
:1002D0004091F1004083222339F02091F200211156
:1002E00003C02BE62093E8003FBF08958FEF9FEFF8
:1002F00008952FB7F89483E08093E9009091E80087
:10030000892F807295FF04C09091F20080E4891BD0
:100310002FBF08958091420181110DC082E080932A
:100320003E0184E080933F01109241011092400110
:1003300081E0809342018EE391E00895823091053F
:1003400038F0880F991F880F991F05970197F1F7CB
:100350000895E091A401F091A501908180919E0102
:100360008095892380838091AF01882349F0E091B3
:10037000A001F091A101808190919E01892B808341
:10038000E091A601F091A701908180919F01809555
:10039000892380838091AF01882349F0E091A201F5
:1003A000F091A301808190919F01892B808380919E
:1003B000AD019091AE01009711F00E949E01E09175
:1003C000A801F091A901908180919E019823E0916C
:1003D000AA01F091AB01208130919F01232311F4F8
:1003E00080E008959923E1F3E091A001F091A1014B
:1003F0009081809589238083E091A401F091A501EB
:10040000808190919E01892B80838091AD01909194
:10041000AE01009711F00E949E01E091A201F091BF
:10042000A301908180919F01809589238083E09131
:10043000A601F091A701808190919F01892B808373
:100440008091AD019091AE01009711F00E949E0144
:1004500081E0089540913701509138012091350194
:100460003091360142175307B4F49091E80095702B
:10047000E1F39091E80092FD19C08093F100809122
:1004800037019091380101968F739927892B19F4C0
:100490008EEF8093E80080913701909138010196AA
:1004A000909338018093370181E0089580E00895AA
:1004B000EF92FF920F931F93CF93DF93F82E192F94
:1004C000E62E042F81E0860F880F0E942A0283E027
:1004D0000E942A02CF2DD12FEC0EFD2EF11CCE153D
:1004E000DF05B9F007FF13C0FE0184910E942A02C4
:1004F000182F80E00E942A02812321968111EFCFDC
:10050000DF91CF911F910F91FF90EF900895888117
:10051000EDCF81E0F5CFDF92EF92FF920F931F9323
:10052000CF93DF93D82E8A01EB017B01E40EF51EF9
:10053000CE15DF0559F0D7FE12C0FE0184910E944E
:100540002A0221968111F4CF0FEF1FEFC801DF912E
:10055000CF911F910F91FF90EF90DF9008958881C8
:10056000EECF0F931F93CF93DF931F92CDB7DEB7DC
:1005700082E0898342E450E06CEA70E080E80E9407
:100580008B020E948A01DC0112960D911C910115CB
:10059000110589F0D801ED91FC910280F381E02DE5
:1005A000BE016F5F7F4FC801099597FD04C0F80138
:1005B00000851185ECCF89810F90DF91CF911F913C
:1005C0000F910895615030F02091F100FC012083DB
:1005D0000196F8CF289A84E680934A010895CF9334
:1005E000DF931F92CDB7DEB76983DC01ED91FC91FB
:1005F0000280F381E02D41E050E0BE016F5F7F4F4C
:1006000009950F90DF91CF9108950F931F93CF938A
:10061000DF938C01D0E0C0E0F801EC0FFD1F649186
:10062000662341F08CE491E00E94EF02892B11F0E7
:100630002196F2CFCE01DF91CF911F910F910895B6
:1006400083E08093E9008091F200882319F08AE327
:100650008093E80008950E94790190E00895CF9377
:10066000DF931F92CDB7DEB7FC018485958597FD9A
:1006700008C02FEF3FEF358724870F90DF91CF9190
:100680000895CE0101960E944F01019719F48981C6
:1006900090E0F3CF8FEF9FEFF0CF0F931F93CF93A7
:1006A000DF931F92CDB7DEB78C01FC018485958561
:1006B00097FF0BC0CE0101960E944F01019771F484
:1006C000898190E0F80195878487F8018485958574
:1006D0000F90DF91CF911F910F9108958FEF9FEFB2
:1006E000F1CFFC018485958597FD0BC09FB7F894E9
:1006F00082E08093E9008091F2009FBF90E0019634
:1007000008959FB7F89482E08093E9008091F20009
:100710009FBF90E008953FB7F89480913101909188
:100720003201A0913301B091340126B5A89B05C0D8
:100730002F3F19F00196A11DB11D3FBFBA2FA92F60
:10074000982F8827BC01CD01620F711D811D911D5D
:1007500042E0660F771F881F991F4A95D1F70895C9
:100760008F929F92AF92BF92CF92DF92EF92FF92C1
:100770004B015C010E948B036B017C010E948B0387
:100780006C197D098E099F09683E734081059105AA
:10079000A8F321E0821A9108A108B10888EEC80EDA
:1007A00083E0D81EE11CF11C81149104A104B10462
:1007B00029F7FF90EF90DF90CF90BF90AF909F9080
:1007C0008F9008958F929F92AF92BF92CF92DF92B7
:1007D000EF92FF920F931F93CF93DF936C017B01F6
:1007E0008A0180910B01882309F45CC080914B0140
:1007F000882309F457C080913B0180FF05C0809198
:10080000E00082608093E000E801B12C8AEFA82E1E
:1008100093E0892E2AE3922E209711F4BB20D9F180
:100820000E94790181110AC0AA94AA20D9F161E03D
:1008300070E080E090E00E94B003EECF8C171D06C0
:1008400011F00CF08C2F9FB7F8948092E900209162
:10085000E80025FD02C09FBFDFCF282F30E0C21B7C
:10086000D30BF701815020F041914093F100FACF72
:10087000E20EF31EBB2021F09092E800B12CEBCFEA
:100880008091E80085FDE7CF9092E800BB24B39407
:10089000209709F3F3CF5D9A84E680933A0110160E
:1008A00011063CF081E090E0F6019383828310E032
:1008B00000E0C801DF91CF911F910F91FF90EF9061
:1008C000DF90CF90BF90AF909F908F9008952FB7FB
:1008D000F89460912D0170912E0180912F019091DB
:1008E00030012FBF0895CF92DF92EF92FF920F93C6
:1008F0001F93E091A201F091A301908180919F014B
:10090000809589238083E091A601F091A7018081E1
:1009100090919F01892B8083E091A001F091A1012A
:10092000908180919E01809589238083E091A4012C
:10093000F091A501808190919E01892B8083809107
:10094000AD019091AE01009711F00E949E01E091DF
:10095000A601F091A701908180919F018095892344
:1009600080838091AF01882349F0E091A201F0914A
:10097000A301808190919F01892B80838091B00198
:10098000882301F10E9467046B017C01E091AA01B8
:10099000F091AB01808190919F01892399F40E948D
:1009A00067046C197D098E099F090091B1011091AE
:1009B000B2012091B3013091B40160177107820731
:1009C000930720F38091AD019091AE01009711F053
:1009D0000E949E01E091A401F091A5019081809177
:1009E0009E018095892380838091AF01882349F0FF
:1009F000E091A001F091A101808190919E01892B4D
:100A000080838091AD019091AE01009741F01F91DC
:100A10000F91FF90EF90DF90CF900C949E011F916B
:100A20000F91FF90EF90DF90CF900895CF92DF92DB
:100A3000EF92FF920F931F9390919E0190958111D9
:100A40007CC0E091A001F091A10180819823908366
:100A5000E091A401F091A501808190919E01892BE4
:100A600080838091AD019091AE01009711F00E94BA
:100A70009E01E091A601F091A701908180919F01D4
:100A80008095892380838091AF01882349F0E0918C
:100A9000A201F091A301808190919F01892B808315
:100AA0008091B001882301F10E9467046B017C01F1
:100AB000E091AA01F091AB01808190919F0189237F
:100AC00099F40E9467046C197D098E099F090091B1
:100AD000B1011091B2012091B3013091B4016017BE
:100AE00071078207930720F38091AD019091AE01C9
:100AF000009711F00E949E01E091A201F091A301E4
:100B0000908180919F01809589238083E091A60147
:100B1000F091A701808190919F01892B8083809122
:100B2000AD019091AE010097C9F01F910F91FF9018
:100B3000EF90DF90CF900C949E01E091A401F09192
:100B4000A5018081982390838091AF01882309F4C7
:100B500088CFE091A001F091A1017ECF1F910F916C
:100B6000FF90EF90DF90CF900895CF92DF92EF92B9
:100B7000FF920F931F93CF93E091A401F091A501F1
:100B8000908180919E018095892380838091AF011F
:100B9000882349F0E091A001F091A101808190911A
:100BA0009E01892B8083E091A601F091A70190819D
:100BB00080919F018095892380838091AF01882354
:100BC00049F0E091A201F091A301808190919F01F1
:100BD000892B80838091B001882301F10E946704F2
:100BE0006B017C01E091AA01F091AB0180819091B1
:100BF0009F01892399F40E9467046C197D098E096D
:100C00009F090091B1011091B2012091B30130917F
:100C1000B401601771078207930720F38091AD013B
:100C20009091AE01009711F00E949E01E091A80101
:100C3000F091A901808190919E018923C1E009F47E
:100C4000C0E0E091A201F091A301908180919F0109
:100C5000809589238083E091A601F091A70180818E
:100C600090919F01892B80838091AD019091AE017D
:100C7000009711F00E949E018C2FCF911F910F9130
:100C8000FF90EF90DF90CF900895CF93DF93D82F10
:100C9000C8E08D2F80780E941605DD0FC150C9F77E
:100CA000DF91CF910C94B5059091AC01911106C0E4
:100CB0000E944506811105C01092AC0181E090E0D0
:100CC000089582E08093AC01F9CF8F929F92AF920A
:100CD000BF920F931F93CF93DF93CDB7DEB7A1974A
:100CE0000FB6F894DEBF0FBECDBF19A2423008F494
:100CF0004AE08E010F5D1F4F842E912CB12CA12C48
:100D0000A50194010E94200EE62FB901CA01EA3024
:100D100044F5E05DD801EE938D01232B242B252B88
:100D200079F790E080E0109769F0FD0101900020D4
:100D3000E9F73197AF014A1B5B0BBD018CE491E0F1
:100D40000E94E203A1960FB6F894DEBF0FBECDBF9E
:100D5000DF91CF911F910F91BF90AF909F908F9097
:100D60000895E95CD7CFCF92DF92EF92FF92CF93B5
:100D7000DF936B017C016DE28CE491E00E94EF0255
:100D8000EC0166277727CB016C197D098E099F0935
:100D90004AE00E9465068C0F9D1FDF91CF91FF9066
:100DA000EF90DF90CF900895BC01990F880B990BBD
:100DB00097FD0C94B3064AE00C94650642E050E0BF
:100DC00069E271E08CE491E00C94E203CF93DF934D
:100DD0000E940503EC010E94DE068C0F9D1FDF912F
:100DE000CF910895CF93DF93BC01990F880B990B96
:100DF00097FF0AC00E94B306EC010E94DE068C0F2A
:100E00009D1FDF91CF9108954AE00E946506F4CFBF
:100E10001F920F920FB60F9211248F939F93809180
:100E2000E1009091E100937F9093E10083FF0FC078
:100E30001092E90091E09093EB001092EC0092E3A5
:100E40009093ED0010924B0198E09093F00082FF98
:100E500022C093E09093E9009091F200992319F059
:100E60009AE39093E80090913A01992341F0909190
:100E70003A01915090933A01911101C05D9890917F
:100E80004A01992341F090914A01915090934A016F
:100E9000911101C0289884FF18C08091E2008E7ED5
:100EA00081608093E2008091E1008F7E8093E10079
:100EB00080913B018E7E806180933B019F918F9159
:100EC0000F900FBE0F901F90189580FFF7CF809165
:100ED000E2008E7E80618093E2008091E1008E7E50
:100EE0008093E10080913B018E7E8160E5CF1F926F
:100EF0000F920FB60F921124CF92DF92EF92FF92D2
:100F00000F931F932F933F934F935F936F937F9311
:100F10008F939F93AF93BF93EF93FF93CF93DF9301
:100F2000CDB7DEB76C97DEBFCDBF1092E9008091E0
:100F3000E80083FF25C068E0CE0145960E94E202EA
:100F400082EF8093E8008D8987FF39C09091E80097
:100F500090FFFCCF982F907609F034C19E894F897D
:100F6000588D2F89F88C911131C0803861F58091AE
:100F70003C018093F1001092F1008EEF8093E80025
:100F80006C960FB6F894DEBF0FBECDBFDF91CF9148
:100F9000FF91EF91BF91AF919F918F917F916F9151
:100FA0005F914F913F912F911F910F91FF90EF9083
:100FB000DF90CF900F900FBE0F901F9018959EEF6F
:100FC0009093E800C7CF1092F100D5CF913059F43B
:100FD0008111D3CF4130510581F680913C018D7F45
:100FE00080933C01CACF933049F48111C6CF413080
:100FF000510519F680913C018260F2CF953041F4A1
:101000008091E80080FFFCCF20682093E300B5CFFB
:10101000963009F0A9C00B8D1C8D22E01092E900DA
:101020001092380110923701F2122EC01092360140
:10103000109235010E94B1021F8299E09983FA82D1
:1010400091E09E8390EA98879AEF998720913701E3
:1010500030913801275F3F4F3C832B838D83109263
:10106000E900109238011092370110933601009375
:10107000350149E050E0BE016F5F7F4F80E00E9484
:101080008B020E94B10279CF109336010093350193
:101090000E948A01DC0112960D911C910115110527
:1010A00009F451C1D801ED91FC910480F581E02D46
:1010B000BE016B5E7F4FC8010995009709F03EC1E4
:1010C000F80100851185EACFF3E0FF120EC08F8989
:1010D000882309F440C0823061F440E86DE080E18B
:1010E00091E00E945802811148CF81E28093EB0089
:1010F00047CF813029F440E86BE084E091E0F1CF04
:10110000833099F70E948A01DC011296ED90FC90E1
:101110008E010F5F1F4F6801E114F10479F0D701D0
:10112000ED91FC910680F781E02DB801C70109958A
:10113000080F111DF701E084F184EECFD8011C9255
:10114000F60101900020E9F73197BF016C197D0984
:1011500040E0C601C6CF6EEE70E0FB01449150E066
:1011600080E80E948B0209CF973009F4BECF9830F7
:1011700021F481E08093F10000CF993009F0FDCE99
:10118000837009F0B2CFE1E1F1E081E031E096E374
:101190002191222371F08093E9003093EB00DF016D
:1011A00011972C912093EC009093ED008F5F873086
:1011B00079F78EE78093EA001092EA008F89809396
:1011C0004B01DBCE8B8D9C8D1092E9001092380183
:1011D000109237019093360180933501898D8111EA
:1011E00092C08E899D89913A49F4813209F07DCF70
:1011F00047E050E064E071E080E0B3CF913209F065
:1012000074CF833269F48F89988DB0E0A0E0809329
:10121000000190930101A0930201B0930301ADCEB0
:10122000803269F48091E80082FFFCCF67E084E0BF
:1012300091E00E94E2028BEF8093E8009ECE823222
:1012400009F09BCE8F8980930B01EEEFFFE785912C
:1012500094918B3F9C4D51F1E0E0F8E080910401C6
:1012600090910501A0910601B0910701803B944047
:10127000A105B105F1F480910B0180FD1AC0EE3F8C
:101280008AE0F80789F587E797E791838083809163
:1012900060008093390188E19BE00FB6F894A8952F
:1012A000809360000FBE9093600067CEEEEFFAE08F
:1012B000D5CF808191818737974709F05ECEA89579
:1012C00080916000886180936000809139018093F3
:1012D0006000EE3F2AE0F20789F08091FE0A9091CB
:1012E000FF0A9183808349CE808191818737980757
:1012F00051F29093FF0A8093FE0AC5CF1092FF0A25
:101300001092FE0A3ACE0E948A01DC0112960D91DB
:101310001C910115110509F4E8CED801ED91FC915D
:101320000190F081E02DBE016B5E7F4FC8010995F1
:10133000811123CEF80100851185EBCF181619060F
:101340000CF41BCED2CEF1E0FF12BECE62EF70E005
:1013500004CF1F920F920FB60F9211242F933F9339
:101360008F939F93AF93BF9380912D0190912E0106
:10137000A0912F01B091300130912C0123E0230F77
:101380002D3758F50196A11DB11D20932C01809396
:101390002D0190932E01A0932F01B09330018091E5
:1013A000310190913201A0913301B0913401019645
:1013B000A11DB11D8093310190933201A09333019F
:1013C000B0933401BF91AF919F918F913F912F9135
:1013D0000F900FBE0F901F90189526E8230F0296CE
:1013E000A11DB11DD2CFECE4F1E01382128248EED0
:1013F00053E060E070E044835583668377838BE13C
:1014000091E0918380838FEF9FEF95878487ACE98C
:10141000B1E080E28C9381E211968C93119781E088
:1014200053968C93539754968C93549782E090E004
:1014300052969C938E93519755964D935D936D93D1
:101440007C935897E6E4F2E08491E7E2F2E0E491DD
:101450001296EC93129790E0880F991FFC01E750C9
:10146000FE4F2591349115963C932E931497FC01D1
:10147000E551FE4F2591349119963C932E93189780
:10148000FC01E352FE4F859194911D969C938E939F
:101490001C97E7E4F2E08491E8E2F2E0E49113962D
:1014A000EC93139790E0880F991FFC01E750FE4FD3
:1014B0002591349117963C932E931697FC01E55194
:1014C000FE4F259134911B963C932E931A97FC0165
:1014D000E352FE4F859194911F969C938E931E9795
:1014E0000895CF93DF93CDB7DEB7EE970FB6F8949C
:1014F000DEBF0FBECDBF789484B5826084BD84B555
:10150000816084BD85B5826085BD85B5816085BDFE
:1015100080916E00816080936E00109281008091B6
:10152000810082608093810080918100816080933E
:101530008100809180008160809380008091910083
:1015400082608093910080919100816080939100EE
:10155000809190008160809390008091C1008460B0
:101560008093C1008091C10082608093C10080910E
:10157000C10081608093C1008091C300816080932D
:10158000C3008091C00082608093C0008091C2003F
:1015900081608093C20080917A00846080937A0099
:1015A00080917A00826080937A0080917A008160D5
:1015B00080937A0080917A00806880937A001092FC
:1015C0004B0110923C0110923B018091D700816049
:1015D0008093D70080EA8093D80089B5806189BD67
:1015E00089B5826089BD09B400FEFDCF61E070E07D
:1015F00080E090E00E94B0038091D8008F7C8061F1
:101600008093D8008091E000807F8093E0008091FB
:10161000E1008E7E8093E1008DE08093E200559A98
:10162000209A5D9828988FEF9FEF909359018093AF
:1016300058018EE191E00E94E6061092D5011092C9
:10164000D601E091A601F091A701908180919F01C0
:101650008095892380838091AF01882349F0E091B0
:10166000A201F091A301808190919F01892B808339
:101670008091AD019091AE01009711F00E949E0102
:10168000E091A401F091A501908180919E01809547
:10169000892380838091AF01882349F0E091A001E4
:1016A000F091A101808190919E01892B808314E0AB
:1016B0008091AD019091AE01009711F00E949E01C2
:1016C0001150B1F78091AF01882331F062E070E0F2
:1016D00080E090E00E94B003AE014D5C5F4F5EAFD2
:1016E0004DAF9BE8292E3324339488EA91E00E9481
:1016F000E6068AE0EDADFEAD11928A95E9F784E643
:1017000089A785E68AA786E68BA787E68CA788E661
:101710008DA789E68EA78AE68FA78BE688AB8CE635
:1017200089AB8DE68AAB0E9467042B013C01912CAA
:10173000B12CA12C10E000E01092AC010E94A90194
:10174000882309F49DC088E00E944506811194C059
:101750001092AC01D12CC12C8091AC0181110DC033
:10176000E9E2F0E0EC0FFD1FEC0DFD1D80810E9411
:101770004506811189C01092AC015FEFC51AD50AE8
:101780008AE0C816D10441F70E9473048091AC012D
:10179000882371F09FEFA91AB90A911007C084E954
:1017A00091E00E940503C8010E94F20699249394D7
:1017B000C1010197F1F70F5F1F4F083C110509F0B8
:1017C000BBCF0E9467046B017C0187E891E00E9417
:1017D0000503C701B60164197509860997094AE02E
:1017E0000E94650683E791E00E940503C5010E94FF
:1017F000F20660ED77E080E090E00E94B00386E6BC
:1018000091E00E94E6061092AC010E94A901882393
:1018100009F442C088E00E944506811139C0109247
:10182000AC0180913D0191E0980F90933D010E94A1
:101830005406412C512C3201530142010E94960D55
:101840002FEF421A520A620A720A20E230E040E0A8
:1018500050E00E94EE0D86169706A806B90604F51C
:101860000E94960D20E031E040E050E00E94EE0D35
:10187000862F0E945406E0CFF2E0F093AC016ACFCD
:1018800024E02093AC0166CF42E04093AC0175CFD9
:10189000E2E0E093AC01C5CFF4E0F093AC01C1CF3E
:1018A0000E9473040091AC0110E08BE491E00E946F
:1018B0000503C8010E94F20660ED77E080E090E049
:1018C0000E94B0038BE391E00E94E6061092AC0107
:1018D0001092D5011092D6010E94A901882309F423
:1018E0008EC089E00E944506811184C01092AC012F
:1018F00010E000E0D12C88E0C82E0930110509F471
:1019000064C0DD0C0E94B505D82ACA94C110F9CF75
:1019100080E00E9416058091AD019091AE01009784
:1019200011F00E949E01F801E456FE4FD18E0F5F28
:101930001F4F0A301105F1F68AE08093D5010AE0C5
:101940000E94730410E088E391E00E940503C8013F
:101950000E94D4068BE291E00E9405038091D5019C
:101960009091D601891B990B0E94F2062091D50116
:101970008091D601E82FF0E0EB54FE4FAE014F5FAF
:101980005F4F5A01DA01AD014A195B09401751074F
:10199000D4F18093D601D12CC12CC016D106CCF540
:1019A000C114D10421F489E291E00E940503F501FC
:1019B00081915F0190E00E94D40686E291E00E944E
:1019C0000503FFEFCF1ADF0AE8CFDD0C0E94B50553
:1019D000D82ACA94C110F9CF81E00E9416058091DF
:1019E000AD019091AE01009711F00E949E01D0923E
:1019F000BE019DCF42E04093AC0100E0A1CF54E096
:101A00005093AC01FACF821720F691918F5F9D938E
:101A1000BACF0E94DE0660ED77E080E090E00E94A1
:101A2000B00380E090E0892B09F45FCE0E940000B3
:101A300058CE1092AF01E091A401F091A5019081E0
:101A400080919E018095892380838091AF018823B6
:101A500049F0E091A001F091A101808190919E0157
:101A6000892B8083E091A601F091A701908180915C
:101A70009F018095892380838091AF01882349F05D
:101A8000E091A201F091A301808190919F01892BA7
:101A9000808308958F929F92AF92BF92CF92DF92F0
:101AA000EF92FF92CF93DF93EC01688179818A8175
:101AB0009B81611571058105910521F464E279ED41
:101AC0008BE597E02DE133EF41E050E00E94EE0D11
:101AD00049015A019B01AC01A7EAB1E40E940D0E35
:101AE0006B017C01ACEEB4EFA50194010E941B0ECA
:101AF000C60ED71EE81EF91EF7FE06C081E0C81A02
:101B0000D108E10880E8F80AC882D982EA82FB821B
:101B1000C701B6019F77DF91CF91FF90EF90DF90E3
:101B2000CF90BF90AF909F908F9008958F929F928B
:101B3000AF92BF92CF92DF92EF92FF9260910C0131
:101B400070910D0180910E0190910F016115710549
:101B50008105910521F464E279ED8BE597E02DE1B3
:101B600033EF41E050E00E94EE0D49015A019B0124
:101B7000AC01A7EAB1E40E940D0E6B017C01ACEE52
:101B8000B4EFA50194010E941B0EC60ED71EE81EDD
:101B9000F91EF7FE06C081E0C81AD108E10880E806
:101BA000F80AC0920C01D0920D01E0920E01F09261
:101BB0000F01C701B6019F77FF90EF90DF90CF90A4
:101BC000BF90AF909F908F90089560930C01709399
:101BD0000D0180930E0190930F010895052E97FB40
:101BE0001EF400940E94050E57FD07D00E94200E9F
:101BF00007FC03D04EF40C94050E5095409530959B
:101C000021953F4F4F4F5F4F089590958095709568
:101C100061957F4F8F4F9F4F08950E94420EA59F61
:101C2000900DB49F900DA49F800D911D11240895D7
:101C3000B7FF0C940D0E0E940D0E821B930B08959E
:101C4000A1E21A2EAA1BBB1BFD010DC0AA1FBB1FC0
:101C5000EE1FFF1FA217B307E407F50720F0A21B32
:101C6000B30BE40BF50B661F771F881F991F1A949F
:101C700069F760957095809590959B01AC01BD01C9
:101C8000CF010895A29FB001B39FC001A39F700D23
:101C9000811D1124911DB29F700D811D1124911D74
:101CA0000895EE0FFF1F0590F491E02D099411E0C7
:101CB000C4E2D1E004C0FE010E94510E2196C5325B
:081CC000D107C9F7F894FFCF2A
:101CC800FFFFFFFF00E1000000000000010000002E
:101CD80000C1808100000000000000EF02E2032B39
:0C1CE80003200371032F034D030D0A00BD
:00000001FF
