:100000000C94C7000C94EF000C94EF000C94EF00DC
:100010000C94EF000C94EF000C94EF000C94EF00A4
:100020000C94EF000C94EF000C94A6050C941506AC
:100030000C94EF000C94EF000C94EF000C94EF0084
:100040000C94EF000C94EF000C94EF000C94EF0074
:100050000C94EF000C94EF000C94EF000C94470804
:100060000C94EF000C94EF000C94EF000C94EF0054
:100070000C94EF000C94EF000C94EF000C94EF0044
:100080000C94EF000C94EF000C94EF000C94EF0034
:100090000C9491080C94EF000C94EF000C94EF007A
:1000A0000C94EF000C94EF000C94EF0000000000A3
:1000B000250028002B002E00310004040404040352
:1000C00004050202020204030202020206060606F8
:1000D000060604040202020404040802011040801F
:1000E000401020408040800802040180402010021F
:1000F00001108010204040200000000200090F0085
:1001000000030401000C00000000000000000000DB
:1001100000000000000000080B00020202000009BD
:100120000400000102020000052400100105240162
:1001300001010424020605240600010705810310BD
:10014000004009040100020A000000070502024005
:1001500000000705830240000004030904120100A7
:1001600002EF0201404123378000010102030141F7
:10017000726475696E6F204C4C43004172647569FE
:100180006E6F204D6963726F002A0000B009112460
:100190001FBECFEFDAE0DEBFCDBF11E0A0E0B1E0DF
:1001A000E4E8F6E102C005900D92A439B107D9F751
:1001B00022E0A4E9B1E001C01D92A93DB207E1F738
:1001C00010E0C7ECD0E004C02197FE010E943A0B7A
:1001D000C63CD107C9F70E94D1090C94400B0C947E
:1001E0000000FC0180917C02882311F13FB7F89454
:1001F00082E08093E9002091F200822F90E01816AF
:10020000190614F481E090E0882339F0289A44E636
:1002100040937B024091F1004083222339F02091EA
:10022000F200211103C02BE62093E8003FBF0895A0
:100230008FEF9FEF08952FB7F89483E08093E90044
:100240009091E800892F807295FF04C09091F20090
:1002500080E4891B2FBF08958091730281110DC026
:1002600082E080936F0284E08093700210927202A9
:100270001092710281E0809373028FE692E00895FC
:10028000E0914002F0914102309729F010923B0238
:1002900010923A0209940895CF93DF93AC01E09154
:1002A0003E02F0913F023097F1F090913D02809133
:1002B0003C029817C0F090E0292F30E0261737074E
:1002C00054F4D901AB56BE4F240F351FE9012881E4
:1002D0002C939F5FF1CF10923D0260933C02CB01C3
:1002E000DF91CF910994DF91CF9108954091300231
:1002F0005091310220912E0230912F024217530764
:10030000B4F49091E8009570E1F39091E80092FDCB
:1003100019C08093F10080913002909131020196D2
:100320008F739927892B19F48EEF8093E8008091C1
:100330003002909131020196909331028093300205
:1003400081E0089580E00895EF92FF920F931F934C
:10035000CF93DF93F82E192FE62E042F81E0860F1E
:10036000880F0E94760183E00E947601CF2DD12F65
:10037000EC0EFD2EF11CCE15DF05B9F007FF13C002
:10038000FE0184910E947601182F80E00E94760180
:10039000812321968111EFCFDF91CF911F910F9192
:1003A000FF90EF9008958881EDCF81E0F5CFDF9247
:1003B000EF92FF920F931F93CF93DF93D82E8A0172
:1003C000EB017B01E40EF51ECE15DF0559F0D7FEDB
:1003D00012C0FE0184910E94760121968111F4CF12
:1003E0000FEF1FEFC801DF91CF911F910F91FF9089
:1003F000EF90DF9008958881EECF0F931F93CF93F6
:10040000DF931F92CDB7DEB782E0898342E450E0EC
:1004100067E171E080E80E94D7010E942C01DC01B5
:1004200012960D911C910115110589F0D801ED91DD
:10043000FC910280F381E02DBE016F5F7F4FC80108
:10044000099597FD04C0F80100851185ECCF8981DD
:100450000F90DF91CF911F910F910895615030F06F
:100460002091F100FC0120830196F8CF289A84E6C0
:1004700080937B020895CF93DF931F92CDB7DEB7B1
:100480006983DC01ED91FC910280F381E02D41E074
:1004900050E0BE016F5F7F4F09950F90DF91CF91C4
:1004A000089583E08093E9008091F200882319F099
:1004B0008AE38093E80008950E941B0190E008956C
:1004C000CF93DF931F92CDB7DEB7FC01848595856E
:1004D00097FD08C02FEF3FEF358724870F90DF91FE
:1004E000CF910895CE0101960E94F100019719F471
:1004F000898190E0F3CF8FEF9FEFF0CF0F931F93A1
:10050000CF93DF931F92CDB7DEB78C01FC018485BA
:10051000958597FF0BC0CE0101960E94F1000197CF
:1005200071F4898190E0F80195878487F8018485CA
:1005300095850F90DF91CF911F910F9108958FEFC7
:100540009FEFF1CFFC018485958597FD0BC09FB788
:10055000F89482E08093E9008091F2009FBF90E0E0
:10056000019608959FB7F89482E08093E900809106
:10057000F2009FBF90E00895282F30E0F901E85085
:10058000FF4F9491F901E752FF4F849126543F4F5A
:10059000F9012491222309F430C09923E9F0915004
:1005A0009F30D0F4E92FF0E0E852FD4F0C943A0B65
:1005B00006030A03E702FE020203EC02EC02EC026D
:1005C0000D03130317031B032103EC022503909172
:1005D00080009F7790938000E22FF0E0EE0FFF1FE6
:1005E000E455FF4FA591B4919FB7F894EC91611138
:1005F00032C080958E238C939FBF08959091800088
:100600009F7DE8CF90918000977FE4CF94B59F774E
:1006100094BDE2CF94B59F7DFBCF909190009F77E2
:1006200090939000D9CF909190009F7DF9CF9091B9
:100630009000977FF5CF9091C0009F779093C00076
:10064000CBCF9091C0009F7DF9CF9091C200977F52
:100650009093C200C1CF8E2BCECF3FB7F89480913C
:100660002A0290912B02A0912C02B0912D0226B566
:10067000A89B05C02F3F19F00196A11DB11D3FBFDA
:10068000BA2FA92F982F8827BC01CD01620F711DA9
:10069000811D911D42E0660F771F881F991F4A95A3
:1006A000D1F70895CF92DF92EF92FF920E942D032F
:1006B0006B017C010E942D036C197D098E099F0935
:1006C000683E734081059105A8F3FF90EF90DF909D
:1006D000CF9008958F929F92AF92BF92CF92DF9268
:1006E000EF92FF920F931F93CF93DF936C017B01E7
:1006F0008A0180910B01882309F458C080917C0203
:10070000882309F453C08091340280FF05C0809192
:10071000E00082608093E000E801B12C8AEFA82E0F
:1007200093E0892E2AE3922E209711F4BB20B9F191
:100730000E941B01811106C0AA94AA20B9F10E944F
:100740005203F2CF8C171D0611F00CF08C2F9FB7BF
:10075000F8948092E9002091E80025FD02C09FBF37
:10076000E3CF282F30E0C21BD30BF701815020F0DC
:1007700041914093F100FACFE20EF31EBB2021F02D
:100780009092E800B12CEBCF8091E80085FDE7CF97
:100790009092E800BB24B394209709F3F3CF5D9ABD
:1007A00084E680933302101611063CF081E090E05D
:1007B000F6019383828310E000E0C801DF91CF91BE
:1007C0001F910F91FF90EF90DF90CF90BF90AF906F
:1007D0009F908F9008952091DB01260F3327331FC0
:1007E00021323105ECF42091FF01FC0190E080E022
:1007F000243069F082E00895A091DB012191AC01E1
:1008000045545E4FA40FB52FB11D2C93019686174A
:1008100098F38091DB01680F6093DB0180E008951D
:1008200081E008951092FF0181E08093010210920F
:10083000000261E082E00E94BC0261E083E00E946D
:10084000BC02E9EBF0E080818E7F808380818D7F28
:10085000808388E48093B80085E48093BC00089589
:100860000895E0913D0280913C02E81730F4F0E0F9
:10087000EB56FE4F808190E008958FEF9FEF089533
:1008800090913D0280913C022FEF3FEF981748F482
:10089000E92FF0E0EB56FE4F208130E09F5F909310
:1008A0003D02C90108950F931F93CF93DF938C01ED
:1008B000D0E0C0E0C017D10754F48DEC92E00E9464
:1008C0004004FE01ED5BFD4F80832196F3CF109332
:1008D0006C0200936B0280916D0290916E02019602
:1008E00090936E0280936D02DF91CF911F910F91D3
:1008F000089580913C0290913D02891B990B0895C7
:10090000CF93DF93CB01EA01642F0E94EB03CE016A
:10091000DF91CF910895CF93DF931F92CDB7DEB7CC
:10092000698361E0CE0101960E94EB0381E090E0D3
:100930000F90DF91CF91089590E080E00895CF93DC
:10094000DF93CDB7DEB72A970FB6F894DEBF0FBEA0
:10095000CDBF8AE0ECE0F1E0DE01119601900D924E
:100960008A95E1F78091940191E0980F909394011A
:1009700089834AE050E0BE016F5F7F4F8DEC92E0CB
:100980000E94800481E0809342022A960FB6F89478
:10099000DEBF0FBECDBFDF91CF910895FC01019066
:1009A0000020E9F73197AF01481B590BBC018DE7D7
:1009B00092E00C946A038F929F92AF92BF920F9332
:1009C0001F93CF93DF93CDB7DEB7A1970FB6F894FF
:1009D000DEBF0FBECDBF19A2423008F44AE08E013F
:1009E0000F5D1F4F842E912CB12CA12CA5019401D9
:1009F0000E94180BE62FB901CA01EA30F4F4E05D59
:100A0000D801EE938D01232B242B252B79F790E031
:100A100080E0109719F0CD010E94CE04A1960FB688
:100A2000F894DEBF0FBECDBFDF91CF911F910F9124
:100A3000BF90AF909F908F900895E95CE1CFCF92E7
:100A4000DF92EF92FF92CF93DF936C01990FEE0844
:100A5000FF08F7FE19C06DE28DE792E00E943B02AD
:100A6000EC0166277727CB016C197D098E099F0958
:100A70004AE00E94DB048C0F9D1FDF91CF91FF9015
:100A8000EF90DF90CF9008954AE0C701B601DF9163
:100A9000CF91FF90EF90DF90CF900C94DB04CF9339
:100AA000DF9385ED8093BC008091B7019091B801F0
:100AB000A091B901B091BA010796A11DB11D23E023
:100AC000B695A795979587952A95D1F72091BC0063
:100AD00024FD03C01092FF0136C04091B701509130
:100AE000B8016091B9017091BA01452B462B472B93
:100AF00069F30097A105B10541F025E32A95F1F7C7
:100B000000000197A109B109E1CF8091B60191E000
:100B10009093B5018823B9F0C091B800D091BA0084
:100B20008091BC008A7B8093BC0060E082E00E94E0
:100B3000BC0260E083E00E94BC020E941204D093D9
:100B4000BA00C093B800DF91CF9108951F920F9221
:100B50000FB60F9211248F939F938091E100909193
:100B6000E100937F9093E10083FF0FC01092E900B2
:100B700091E09093EB001092EC0092E39093ED00E3
:100B800010927C0298E09093F00082FF22C093E0E4
:100B90009093E9009091F200992319F09AE39093D1
:100BA000E80090913302992341F0909133029150E3
:100BB00090933302911101C05D9890917B0299232B
:100BC00041F090917B02915090937B02911101C072
:100BD000289884FF18C08091E2008E7E8160809307
:100BE000E2008091E1008F7E8093E10080913402E9
:100BF0008E7E8061809334029F918F910F900FBE03
:100C00000F901F90189580FFF7CF8091E2008E7EA5
:100C100080618093E2008091E1008E7E8093E1000C
:100C2000809134028E7E8160E5CF1F920F920FB6C5
:100C30000F921124CF92DF92EF92FF920F931F93A6
:100C40002F933F934F935F936F937F938F939F93D4
:100C5000AF93BF93EF93FF93CF93DF93CDB7DEB7FF
:100C60006C97DEBFCDBF1092E9008091E80083FF52
:100C700025C068E0CE0145960E942E0282EF809347
:100C8000E8008D8987FF39C09091E80090FFFCCF84
:100C9000982F907609F034C19E894F89588D2F89FD
:100CA000F88C911131C0803861F5809135028093C4
:100CB000F1001092F1008EEF8093E8006C960FB671
:100CC000F894DEBF0FBECDBFDF91CF91FF91EF91C2
:100CD000BF91AF919F918F917F916F915F914F9154
:100CE0003F912F911F910F91FF90EF90DF90CF9048
:100CF0000F900FBE0F901F9018959EEF9093E800F5
:100D0000C7CF1092F100D5CF913059F48111D3CFD4
:100D10004130510581F6809135028D7F80933502F7
:100D2000CACF933049F48111C6CF4130510519F62D
:100D3000809135028260F2CF953041F48091E800D5
:100D400080FFFCCF20682093E300B5CF963009F0F8
:100D5000A9C00B8D1C8D22E01092E9001092310287
:100D600010923002F2122EC010922F0210922E0218
:100D70000E94FD011F8299E09983FA8291E09E838F
:100D800090EA98879AEF998720913002309131024A
:100D9000275F3F4F3C832B838D831092E900109295
:100DA00031021092300210932F0200932E0249E07C
:100DB00050E0BE016F5F7F4F80E00E94D7010E942C
:100DC000FD0179CF10932F0200932E020E942C0177
:100DD000DC0112960D911C910115110509F451C108
:100DE000D801ED91FC910480F581E02DBE016B5E90
:100DF0007F4FC8010995009709F03EC1F8010085B1
:100E00001185EACFF3E0FF120EC08F89882309F421
:100E100040C0823061F440E86DE08BE791E00E94D1
:100E2000A401811148CF81E28093EB0047CF81304C
:100E300029F440E86BE08FE691E0F1CF833099F739
:100E40000E942C01DC011296ED90FC908E010F5F48
:100E50001F4F6801E114F10479F0D701ED91FC9185
:100E60000680F781E02DB801C7010995080F111D13
:100E7000F701E084F184EECFD8011C92F6010190D5
:100E80000020E9F73197BF016C197D0940E0C601E8
:100E9000C6CF69E571E0FB01449150E080E80E9413
:100EA000D70109CF973009F4BECF983021F481E003
:100EB0008093F10000CF993009F0FDCE837009F0E6
:100EC000B2CFE7E1F1E081E031E096E32191222326
:100ED00071F08093E9003093EB00DF0111972C91C2
:100EE0002093EC009093ED008F5F873079F78EE7C9
:100EF0008093EA001092EA008F8980937C02DBCE17
:100F00008B8D9C8D1092E90010923102109230026C
:100F100090932F0280932E02898D811192C08E8929
:100F20009D89913A49F4813209F07DCF47E050E044
:100F300064E071E080E0B3CF913209F074CF833286
:100F400069F48F89988DB0E0A0E0809300019093C0
:100F50000101A0930201B0930301ADCE803269F488
:100F60008091E80082FFFCCF67E084E091E00E947E
:100F70002E028BEF8093E8009ECE823209F09BCE4A
:100F80008F8980930B01EEEFFFE7859194918B3F62
:100F90009C4D51F1E0E0F8E0809104019091050151
:100FA000A0910601B0910701803B9440A105B105D5
:100FB000F1F480910B0180FD1AC0EE3F8AE0F80742
:100FC00089F587E797E7918380838091600080931C
:100FD000320288E19BE00FB6F894A89580936000F8
:100FE0000FBE9093600067CEEEEFFAE0D5CF808120
:100FF00091818737974709F05ECEA8958091600070
:101000008861809360008091320280936000EE3F9F
:101010002AE0F20789F08091FE0A9091FF0A9183FD
:10102000808349CE808191818737980751F29093D0
:10103000FF0A8093FE0AC5CF1092FF0A1092FE0AA3
:101040003ACE0E942C01DC0112960D911C910115E3
:10105000110509F4E8CED801ED91FC910190F081E1
:10106000E02DBE016B5E7F4FC8010995811123CE33
:10107000F80100851185EBCF181619060CF41BCE6C
:10108000D2CEF1E0FF12BECE6DE571E004CF1F922B
:101090000F920FB60F9211242F933F938F939F932C
:1010A000AF93BF938091260290912702A0912802CE
:1010B000B09129023091250223E0230F2D3758F5F6
:1010C0000196A11DB11D20932502809326029093C5
:1010D0002702A0932802B093290280912A029091BE
:1010E0002B02A0912C02B0912D020196A11DB11DE1
:1010F00080932A0290932B02A0932C02B0932D028E
:10110000BF91AF919F918F913F912F910F900FBE03
:101110000F901F90189526E8230F0296A11DB11D70
:10112000D2CF1F920F920FB60F9211242F933F939D
:101130004F935F936F937F938F939F93AF93BF93DF
:10114000EF93FF938091B900887F803609F44AC0FD
:10115000F0F5883209F4A7C018F5803109F49BC076
:10116000B8F4882309F4F9C0883009F494C0FF91D9
:10117000EF91BF91AF919F918F917F916F915F910F
:101180004F913F912F910F900FBE0F901F90189588
:10119000883109F488C0803251F78093FE0114C071
:1011A000803409F49DC040F48033B9F38833F9F6F4
:1011B0008093FE0185ECB0C0803509F485C0883588
:1011C00009F496C0883499F60E944F05D0CF88392B
:1011D00009F48CC038F5883729F050F4883611F0BE
:1011E000803729F683E08093FF011092FD0157C0FC
:1011F000883809F47BC0803919F0803809F0B7CFFE
:101200008091FD01803208F071C0E091FD0181E024
:101210008E0F8093FD018091BB00F0E0E352FE4F02
:1012200080833DC0803B39F0E0F4803A09F479C016
:10123000883A09F09CCF84E08093FF011092DC0192
:101240001092DB01E0913802F0913902099580910A
:10125000DB0181110FC081E08093DB011092BB01A3
:1012600009C0803C09F4A6CF883C09F4A3CF883B91
:1012700009F07DCFE091DC0181E08E0F8093DC01ED
:10128000F0E0E554FE4F80818093BB009091DC013B
:101290008091DB0129C0809124028093BB0085EC02
:1012A0008093BC0064CF9091230280912202981712
:1012B00058F5E091230281E08E0F80932302F0E045
:1012C000EE5FFD4F8081E9CFE091230281E08E0F38
:1012D000809323028091BB00F0E0EE5FFD4F80839E
:1012E00090912302809122029817C8F285E8D8CF06
:1012F000E091230281E08E0F809323028091BB0056
:10130000F0E0EE5FFD4F80838091010281115CCFA0
:1013100081E08093000284EA8093BC001092FF0178
:1013200026CF85EC8093BC001092FF018091FD01D7
:10133000803230F4E091FD01F0E0E352FE4F108284
:101340006091FD0170E0E0913602F09137028DED81
:1013500091E009951092FD010ACF1092FE0134CF61
:10136000EDE7F2E01382128288EE93E0A0E0B0E0B5
:1013700084839583A683B78321E231E03183208380
:101380002FEF3FEF35872487EDECF2E013821282D6
:1013900084839583A683B78383E391E091838083DD
:1013A0000895789484B5826084BD84B5816084BDDD
:1013B00085B5826085BD85B5816085BD80916E00F3
:1013C000816080936E001092810080918100826024
:1013D0008093810080918100816080938100809161
:1013E0008000816080938000809191008260809372
:1013F0009100809191008160809391008091900094
:101400008160809390008091C10084608093C100CE
:101410008091C10082608093C1008091C100816091
:101420008093C1008091C30081608093C30080914C
:10143000C00082608093C0008091C2008160809370
:10144000C20080917A00846080937A0080917A0053
:10145000826080937A0080917A00816080937A0024
:1014600080917A00806880937A0010927C021092BA
:101470003502109234028091D70081608093D700AA
:1014800080EA8093D80089B5806189BD89B5826082
:1014900089BD09B400FEFDCF0E9452038091D8009F
:1014A0008F7C80618093D8008091E000807F809362
:1014B000E0008091E1008E7E8093E1008DE08093DA
:1014C000E200559A209A5D9828988FEF9FEF9093AD
:1014D0008A028093890281E491E00E94CE0488E42C
:1014E00091E00E94CE0410923D0210923C021092B4
:1014F0003B0210923A020E94120480E491E0909321
:101500003902809338028CE491E090933702809303
:10151000360288E08093BA0083E594E090933F021E
:1015200080933E028FE994E09093410280934002C1
:1015300003EC10E090E0E92E90E0F92EF894C091D1
:101540006D02D0916E0210926E0210926D0278942C
:101550001C161D060CF050C08BE491E00E94CE04D6
:10156000C130D10559F085E591E00E94CE04CE014D
:101570000E941F0583E591E00E94CE048DE591E075
:101580000E94CE0480916B0290916C020E941F0514
:1015900086E691E00E94CE04D0E0C0E080916B022C
:1015A00090916C02C817D9071CF5209789F489E837
:1015B000C82E81E0D82EF6016491662349F08DE7AC
:1015C00092E00E943B02FFEFCF1ADF0A892B99F7C6
:1015D000FE01ED5BFD4F608170E090E080E04AE04D
:1015E0000E94DB0483E591E00E94CE042196D6CFD1
:1015F00088E491E00E94CE04F89480914202109217
:1016000042027894882341F08EE691E00E94CE0455
:1016100088E491E00E94CE04F894C8010197F1F7A4
:101620007894E114F10409F489CF0E94000086CF78
:10163000A1E21A2EAA1BBB1BFD010DC0AA1FBB1FD6
:10164000EE1FFF1FA217B307E407F50720F0A21B48
:10165000B30BE40BF50B661F771F881F991F1A94B5
:1016600069F760957095809590959B01AC01BD01DF
:10167000CF010895EE0FFF1F0590F491E02D09941E
:04168000F894FFCF0C
:10168400FFFFFFFF00E1000000000000BC00FF01BD
:1016940078962C02834800C180810000000000007D
:1016A400003B026A035C025102A20260027E020055
:1016B4000000008B0480049C04300479044004314D
:1016C400040A536C617665000D0A0052656365690E
:1016D40076653A20004D69737365643A00686F77E4
:1016E4004D616E793A002C20646174613A00526550
:1016F40071756573743A2044617461207761732055
:1017040072657175657374656420616E64207365B8
:041714006E640000FF
:00000001FF
